:100000000C949D000C9427060C9400060C94C500DB
:100010000C94C5000C94C5000C94C5000C94C5004C
:100020000C94C5000C94C5000C94C5000C944E06AD
:100030000C94C5000C94C5000C94C5000C94C5002C
:100040000C94B6050C94C5000C9484050C945E05C4
:100050000C94C5000C94C5000C94C5000C94C5000C
:100060000C94C5000C94C50000000000240027007B
:100070002A0000000000250028002B0004040404CE
:100080000404040402020202020203030303030342
:10009000010204081020408001020408102001021F
:1000A00004081020000000080002010000030407FB
:1000B00000000000000000007E306D79335B5F704F
:1000C0007F7B771F0D3D4F470000000000000000C0
:1000D0000000000000000000000000000000000020
:1000E00000000000800180007E306D79335B5F701E
:1000F0007F7B00000000000000771F0D3D4F470090
:10010000370000000E000000670000000000000043
:10011000000000000000000800771F0D3D4F470061
:10012000370000000E00151D6700000000000000F1
:100130000000000000000000250711241FBECFEFC3
:10014000D8E0DEBFCDBF11E0A0E0B1E0E8E7F3E129
:1001500002C005900D92A432B107D9F722E0A4E2C3
:10016000B1E001C01D92A535B207E1F710E0CDE97D
:10017000D0E004C02197FE010E94B409CC39D10718
:10018000C9F70E94E5070C94BA090C940000AF92DD
:10019000BF92CF92DF92EF92FF920F931F93CF9374
:1001A000DF936C017B018B01040F151FEB015E01D6
:1001B000AE18BF08C017D10759F06991D601ED916B
:1001C000FC910190F081E02DC6010995892B79F70A
:1001D000C501DF91CF911F910F91FF90EF90DF90BC
:1001E000CF90BF90AF900895FC01538D448D252F83
:1001F00030E0842F90E0821B930B541710F0CF96C1
:10020000089501970895FC01918D828D981761F0F2
:10021000A28DAE0FBF2FB11D5D968C91928D9F5F09
:100220009F73928F90E008958FEF9FEF0895FC01E8
:10023000918D828D981731F0828DE80FF11D858D9B
:1002400090E008958FEF9FEF0895FC01918D228D2E
:10025000892F90E0805C9F4F821B91098F739927B3
:10026000089587E591E00E94250121E0892B09F49A
:1002700020E0822F089580E090E0892B29F00E94F1
:10028000310181110C9400000895FC01A48DA80F88
:10029000B92FB11DA35ABF4F2C91848D90E00196C8
:1002A0008F739927848FA689B7892C93A089B189E8
:1002B0008C91837080648C93938D848D981306C089
:1002C0000288F389E02D80818F7D80830895EF92ED
:1002D000FF920F931F93CF93DF93EC0181E0888F00
:1002E0009B8D8C8D98131AC0E889F989808185FFD0
:1002F00015C09FB7F894EE89FF896083E889F98972
:1003000080818370806480839FBF81E090E0DF9173
:10031000CF911F910F91FF90EF900895F62E0B8DC6
:1003200010E00F5F1F4F0F731127E02E8C8D8E1181
:100330000CC00FB607FCFACFE889F989808185FFE8
:10034000F5CFCE010E944501F1CFEB8DEC0FFD2FD3
:10035000F11DE35AFF4FF0829FB7F8940B8FEA89A3
:10036000FB8980818062CFCFCF93DF93EC01888DB2
:100370008823B9F0AA89BB89E889F9898C9185FD20
:1003800003C0808186FD0DC00FB607FCF7CF8C91AE
:1003900085FFF2CF808185FFEDCFCE010E94450120
:1003A000E9CFDF91CF91089590E0FC01EC55FF4F2C
:1003B0002491FC01E057FF4F3491FC01E458FF4FBA
:1003C000E491EE23C9F0222339F0233001F1A8F49F
:1003D000213019F1223029F1F0E0EE0FFF1FEE5825
:1003E000FF4FA591B4918FB7F894EC91611126C09D
:1003F00030953E233C938FBF08952730A9F02830D5
:10040000C9F0243049F7809180008F7D03C080912E
:1004100080008F7780938000DFCF84B58F7784BD95
:10042000DBCF84B58F7DFBCF8091B0008F77809339
:10043000B000D2CF8091B0008F7DF9CF3E2BDACFC4
:10044000CF93DF9390E0FC01E057FF4F2491845855
:100450009F4FFC0184918823D1F090E0880F991F71
:10046000FC01E859FF4FA591B491FC01EE58FF4FF4
:10047000C591D49161110EC09FB7F8948C91E22F71
:10048000E0958E238C932881E223E8839FBFDF9140
:10049000CF9108958FB7F894EC91E22BEC938FBF36
:1004A000F6CF3FB7F89480914F0190915001A09101
:1004B0005101B091520126B5A89B05C02F3F19F0FC
:1004C0000196A11DB11D3FBFBA2FA92F982F8827D4
:1004D000BC01CD01620F711D811D911D42E0660FAF
:1004E000771F881F991F4A95D1F708958F929F9281
:1004F000AF92BF92CF92DF92EF92FF924B015C01DD
:100500000E9451026B017C010E9451026C197D090D
:100510008E099F09683E734081059105A8F321E08B
:10052000821A9108A108B10888EEC80E83E0D81E8F
:10053000E11CF11C81149104A104B10429F7FF907E
:10054000EF90DF90CF90BF90AF909F908F900895E5
:1005500008958F929F92AF92BF92FF920F931F9335
:10056000CF93DF93FC01F0808BE08F1508F44AC035
:10057000828108E512E0081B110987FD1395000F21
:10058000111F000F111F8181C8E8D0E0C81BD109DD
:1005900087FDD395CC0FDD1FCC0FDD1F4E010D2E37
:1005A000000CAA08BB089801012E000C440B550B47
:1005B000281939094A095B09DB010E94470924EB24
:1005C00030E040E050E00E941D09820E931EA41E00
:1005D000B51E8C169D062CF0E801801691060CF4D1
:1005E000E4012297CC0FDD1F2FB7F8948F2D90E0F8
:1005F000FC01EE0FFF1FE80FF91FEA5DFE4FD283EB
:10060000C1832FBFDF91CF911F910F91FF90BF90BA
:10061000AF909F908F900895CF92DF92EF92FF92CC
:100620000F931F93CF93DF93162FD42FC22F682FD2
:100630008AE00E94D401612F8BE00E94D4016D2FCB
:100640008CE00E94D4016C2F8DE00E94D401602FB9
:100650008EE00E94D401B70182E592E00E94A902D7
:10066000B6018FE492E00E94A9026AE570E08CE492
:1006700092E0DF91CF911F910F91FF90EF90DF906B
:10068000CF900C94A9021F93CF93DF93EC01162F08
:1006900088818C3008F04EC061E0812F0E942002DA
:1006A0008881282F30E0F901EE0FFF1FE20FF31FC2
:1006B000EA5DFE4F1F736081607C612B608319824D
:1006C0001A822CE0622F0E948009829FB0011124BF
:1006D00030E020E0AB01420F531FFA01EE0FFF1F85
:1006E000E40FF51FEA5DFE4F908196FD16C02F5F67
:1006F0003F4F2C30310571F781110FC010928000EF
:1007000082E0809381001092850010928400B19A5B
:1007100080916F00826080936F00E8818E2F90E05F
:10072000FC01EE0FFF1FE80FF91FEA5DFE4F80810D
:10073000806480838881DF91CF911F910895CF924B
:10074000DF92EF92FF920F931F93CF93DF9300D02E
:10075000CDB7DEB769834A83880F991F00914A029B
:1007600010914B02000F111FE4EFF1E09F01245F95
:1007700031402017310714F41192F8CF2981FC0180
:10078000EC50FE4F21838A81808360E08091480293
:100790000E94D4011016110604F501501109F80148
:1007A000EC50FE4FE080D0904602C090440288E0BA
:1007B000F82E6E2D661F6627661F8C2D0E94D401B1
:1007C000EE0C61E08D2D0E94D40160E08D2D0E9421
:1007D000D401FA94F110EDCFDDCF61E080914802B1
:1007E0000F900F90DF91CF911F910F91FF90EF909D
:1007F000DF90CF900C94D401EF92FF920F931F9350
:10080000CF937C018C0183E0000F111F8A95E1F7E3
:100810000C5F1D4FC1E0F80111928F0140E06C2F79
:10082000C7010E949F03CF5FC930A9F7CF911F91E5
:100830000F91FF90EF90089520914A0230914B0262
:10084000121613068CF4603178F4E62FF0E0E854C9
:10085000FF4F4491FC01EC50FE4F408B61E0680F6C
:1008600090E080E00C949F0308951F93CF93DF9353
:10087000162FD42FC22F682F90E080E00E941C0416
:10088000612F81E090E00E941C046D2F82E090E0D7
:100890000E941C046C2F83E090E00E941C0468EE10
:1008A00073E080E090E0DF91CF911F910C9476028D
:1008B000FC0101900020E9F73197AF01481B590B6B
:1008C000BC0187E591E00C94C700AF92BF92CF9234
:1008D000DF92EF92FF920F931F93CF93DF93CDB7E9
:1008E000DEB7A1970FB6F894DEBF0FBECDBF5C0197
:1008F0006C01990FEE08FF08F7FE4BC06DE287E52B
:1009000091E00E94670122273327A9012C193D0994
:100910004E095F0919A28E010F5D1F4F9AE0C92E83
:10092000D12CE12CF12CCA01B901A70196010E943A
:100930004F09605DF80162938F0121153105410572
:10094000510589F70115110519F0C8010E945804D5
:1009500086E191E00E945804FAE0AF16B104A4F5D4
:100960001092540110925301B0925601A092550179
:10097000A1960FB6F894DEBF0FBECDBFDF91CF9129
:100980001F910F91FF90EF90DF90CF90BF90AF90AD
:100990000895A701960119A28E010F5D1F4F8AE0ED
:1009A000C82ED12CE12CF12CCA01B901A701960166
:1009B0000E944F09605DF80162938F012115310596
:1009C0004105510589F7BECFC5016AE070E00E947C
:1009D0008C09709354016093530190935601809356
:1009E0005501C6CFCF92DF92EF92FF920F931F93E4
:1009F000CF93DF93D12CC12CF12CE12C10E000E03F
:100A000030E020E041E050E061E070E090E080E024
:100A10000E940C03CAE0D0E0CE010E946504609100
:100A200055017091560130E020E050E040E08091A7
:100A30005301909154010E943504219768F7DF918A
:100A4000CF911F910F91FF90EF90DF90CF9008957D
:100A5000CF92DF92EF92FF920F931F93CF93DF938A
:100A60008AE5C82ED12C9AE5E92EF12C01E010E0A0
:100A700021E030E050E040E061E070E090E080E0B4
:100A80000E940C03CCE3D0E0CE010E94650460918B
:100A900055017091560180915301909154019B0131
:100AA000AC010E943504219778F7DF91CF911F9117
:100AB0000F91FF90EF90DF90CF9008951F920F92CB
:100AC0000FB60F9211242F933F934F935F936F9321
:100AD0007F938F939F93AF93BF93EF93FF9387E59C
:100AE00091E00E944501FF91EF91BF91AF919F91DD
:100AF0008F917F916F915F914F913F912F910F90C7
:100B00000FBE0F901F9018951F920F920FB60F9265
:100B100011242F938F939F93EF93FF93E09167019D
:100B2000F09168018081E0916D01F0916E0182FD8C
:100B30001BC09081809170018F5F8F732091710134
:100B4000821741F0E0917001F0E0E95AFE4F958F75
:100B500080937001FF91EF919F918F912F910F9052
:100B60000FBE0F901F9018958081F4CF1F920F92A7
:100B70000FB60F9211242F933F938F939F93AF93B0
:100B8000BF9380914B0190914C01A0914D01B09188
:100B90004E0130914A0123E0230F2D3758F501967D
:100BA000A11DB11D20934A0180934B0190934C01EC
:100BB000A0934D01B0934E0180914F01909150014F
:100BC000A0915101B09152010196A11DB11D8093D8
:100BD0004F0190935001A0935101B0935201BF91E6
:100BE000AF919F918F913F912F910F900FBE0F90DA
:100BF0001F90189526E8230F0296A11DB11DD2CF94
:100C00001F920F920FB60F9211242F933F934F9381
:100C10005F936F937F938F939F93AF93BF93EF9364
:100C2000FF93E0910201F09103010995FF91EF918B
:100C3000BF91AF919F918F917F916F915F914F91F4
:100C40003F912F910F900FBE0F901F9018951F92FC
:100C50000F920FB60F9211242F933F934F935F93F0
:100C60006F937F938F939F93AF93BF93EF93FF9374
:100C7000E0910001F09101010995FF91EF91BF9181
:100C8000AF919F918F917F916F915F914F913F9124
:100C90002F910F900FBE0F901F9018951F920F92DB
:100CA0000FB60F9211242F933F934F935F936F933F
:100CB0007F938F939F93AF93BF93CF93DF93EF93E4
:100CC000FF9380912401C0912501D0E087FF24C0CB
:100CD0001092850010928400809124018F5F809390
:100CE000240180912401082E000C990B8C179D077C
:100CF00024F4809124018C30C4F18091840090917F
:100D00008500049680349C4908F47AC08091840060
:100D100090918500049676C080912401082E000CE5
:100D2000990B8C179D07C4F6E09124018E2FEE0FCE
:100D3000990BFC01EE0FFF1FE80FF91FEA5DFE4F54
:100D4000808186FFC9CFE09124018E2FEE0F990B91
:100D5000FC01EE0FFF1FE80FF91FEA5DFE4F8081D7
:100D600060E08F730E94D401B7CF2091840030914E
:100D70008500E09124018E2FEE0F990BFC01EE0F00
:100D8000FF1FE80FF91FEA5DFE4F81819281820FFC
:100D9000931F9093890080938800E09124018E2F07
:100DA000EE0F990BFC01EE0FFF1FE80FF91FEA5D34
:100DB000FE4F808186FF11C0E09124018E2FEE0F3F
:100DC000990BFC01EE0FFF1FE80FF91FEA5DFE4FC4
:100DD000808161E08F730E94D401FF91EF91DF91D8
:100DE000CF91BF91AF919F918F917F916F915F91C3
:100DF0004F913F912F910F900FBE0F901F9018951C
:100E000080E49CE990938900809388008FEF809321
:100E10002401E3CFFC01909125019C3098F481E0FE
:100E2000890F809325019083892F90E0FC01EE0FBC
:100E3000FF1FE80FF91FEA5DFE4F88EB9BE09283EE
:100E4000818308958FEF80830895CF93DF9310926D
:100E50005A011092590188EE93E0A0E0B0E080932F
:100E60005B0190935C01A0935D01B0935E0188E00B
:100E700091E0909358018093570185EC90E0909316
:100E800064018093630184EC90E090936601809309
:100E9000650180EC90E0909368018093670181EC9C
:100EA00090E090936A018093690182EC90E09093C6
:100EB0006C0180936B0186EC90E090936E018093BF
:100EC0006D011092700110927101109272011092D6
:100ED000730182E592E00E940A078FE492E00E948B
:100EE0000A078CE492E00E940A07C6E0D0E0D093A3
:100EF0004502C093440285E090E0909347028093BE
:100F0000460284E090E0909349028093480281E099
:100F100090E090934B0280934A0261E086E00E9449
:100F2000200261E0809146020E94200261E08091EF
:100F300048020E94200261E0809148020E94D40190
:100F4000D0934502C0934402E4E0F2E0119282E0C3
:100F5000E434F807D9F7D0E0C0E080914A029091DC
:100F60004B02C817D90774F540E06FE0CE010E942C
:100F70009F0380914A0290914B02C817D9072CF425
:100F800047E06BE0CE010E949F0340E069E0CE01A4
:100F90000E949F0380914A0290914B02C817D90783
:100FA0001CF4CE010E94FC0380914A0290914B02F6
:100FB000C817D9072CF440E06CE0CE010E949F03D3
:100FC0002196CBCFDF91CF910895789484B582603C
:100FD00084BD84B5816084BD85B5826085BD85B5DD
:100FE000816085BD80916E00816080936E0010925B
:100FF00081008091810082608093810080918100D6
:101000008160809381008091800081608093800066
:101010008091B10084608093B1008091B0008160C4
:101020008093B00080917A00846080937A008091F0
:101030007A00826080937A0080917A008160809348
:101040007A0080917A00806880937A001092C100C3
:10105000E0916701F091680182E08083E091630193
:10106000F09164011082E0916501F09166018FECCE
:10107000808310926F01E0916B01F0916C0186E02A
:101080008083E0916901F0916A01808180618083B1
:10109000E0916901F0916A01808188608083E0912C
:1010A0006901F0916A01808180688083E091690123
:1010B000F0916A0180818F7D808360E082E00E94F0
:1010C000200260E083E00E94200282EF94E090938F
:1010D0000101809300018091690083608093690021
:1010E000E89A88E295E09093030180930201809151
:1010F00069008C6080936900E99A67E070E082E59E
:1011000092E00E94430368E070E08FE492E00E9466
:10111000430369E070E08CE492E00E94430370E0D6
:1011200060E082E592E00E94A90270E060E08FE456
:1011300092E00E94A90270E060E08CE492E00E94DC
:10114000A90261E08AE00E94200261E08BE00E9437
:10115000200261E08CE00E94200261E08EE00E94AB
:10116000200280914A0290914B021816190634F41D
:1011700041E06CE090E080E00E949F0380914A0291
:1011800090914B021816190634F448E06AE090E09A
:1011900080E00E949F0380914A0290914B021816B2
:1011A000190624F490E080E00E94FC0368EE73E0EE
:1011B00080E090E00E94760280E0A82E80E0B82EC9
:1011C00089E191E00E94580486E191E00E94580470
:1011D000D12CC12CF12CE12C10E000E021E030E01A
:1011E00050E040E070E060E081E090E00E940C039D
:1011F000CEE1D0E0CE010E946504209155013091EE
:101200005601409153015091540170E060E090E02C
:1012100080E00E943504219768F76CE271E080E07D
:1012200090E00E947602A114B10451F20E943101B3
:10123000882331F20E940000C3CF052E97FB1EF4D5
:1012400000940E94340957FD07D00E944F0907FC03
:1012500003D04EF40C943409509540953095219567
:101260003F4F4F4F5F4F08959095809570956195D2
:101270007F4F8F4F9F4F08950E947109A59F900D3A
:10128000B49F900DA49F800D911D11240895B7FF68
:101290000C943C090E943C09821B930B0895A1E227
:1012A0001A2EAA1BBB1BFD010DC0AA1FBB1FEE1FE0
:1012B000FF1FA217B307E407F50720F0A21BB30B2B
:1012C000E40BF50B661F771F881F991F1A9469F7A7
:1012D00060957095809590959B01AC01BD01CF0103
:1012E0000895A29FB001B39FC001A39F700D811DFF
:1012F0001124911DB29F700D811D1124911D08951F
:10130000991B79E004C0991F961708F0961B881F57
:101310007A95C9F78095089597FB072E16F40094E7
:1013200007D077FD09D00E94A00907FC05D03EF444
:10133000909581959F4F0895709561957F4F089581
:10134000AA1BBB1B51E107C0AA1FBB1FA617B707EB
:1013500010F0A61BB70B881F991F5A95A9F7809507
:101360009095BC01CD010895EE0FFF1F0590F491FB
:08137000E02D0994F894FFCF71
:10137800A802A802000000006701C700F400B40139
:101388002501030117010D0A007665685F63726F16
:04139800737300006B
:00000001FF
