:100000000C949D000C9444060C941D060C94C500A1
:100010000C94C5000C94C5000C94C5000C94C5004C
:100020000C94C5000C94C5000C94C5000C946B0690
:100030000C94C5000C94C5000C94C5000C94C5002C
:100040000C94D3050C94C5000C94A1050C947B056D
:100050000C94C5000C94C5000C94C5000C94C5000C
:100060000C94C5000C94C50000000000240027007B
:100070002A0000000000250028002B0004040404CE
:100080000404040402020202020203030303030342
:10009000010204081020408001020408102001021F
:1000A00004081020000000080002010000030407FB
:1000B00000000000000000007E306D79335B5F704F
:1000C0007F7B771F0D3D4F470000000000000000C0
:1000D0000000000000000000000000000000000020
:1000E00000000000800180007E306D79335B5F701E
:1000F0007F7B00000000000000771F0D3D4F470090
:10010000370000000E000000670000000000000043
:10011000000000000000000800771F0D3D4F470061
:10012000370000000E00151D6700000000000000F1
:100130000000000000000000420711241FBECFEFA6
:10014000D8E0DEBFCDBF11E0A0E0B1E0ECEDF3E11F
:1001500002C005900D92A633B107D9F722E0A6E3BD
:10016000B1E001C01D92A736B207E1F710E0CDE97A
:10017000D0E004C02197FE010E94E609CC39D107E6
:10018000C9F70E9402080C94EC090C940000AF928D
:10019000BF92CF92DF92EF92FF920F931F93CF9374
:1001A000DF936C017B018B01040F151FEB015E01D6
:1001B000AE18BF08C017D10759F06991D601ED916B
:1001C000FC910190F081E02DC6010995892B79F70A
:1001D000C501DF91CF911F910F91FF90EF90DF90BC
:1001E000CF90BF90AF900895FC01538D448D252F83
:1001F00030E0842F90E0821B930B541710F0CF96C1
:10020000089501970895FC01918D828D981761F0F2
:10021000A28DAE0FBF2FB11D5D968C91928D9F5F09
:100220009F73928F90E008958FEF9FEF0895FC01E8
:10023000918D828D981731F0828DE80FF11D858D9B
:1002400090E008958FEF9FEF0895FC01918D228D2E
:10025000892F90E0805C9F4F821B91098F739927B3
:10026000089589E691E00E94250121E0892B09F497
:1002700020E0822F089580E090E0892B29F00E94F1
:10028000310181110C9400000895FC01A48DA80F88
:10029000B92FB11DA35ABF4F2C91848D90E00196C8
:1002A0008F739927848FA689B7892C93A089B189E8
:1002B0008C91837080648C93938D848D981306C089
:1002C0000288F389E02D80818F7D80830895EF92ED
:1002D000FF920F931F93CF93DF93EC0181E0888F00
:1002E0009B8D8C8D98131AC0E889F989808185FFD0
:1002F00015C09FB7F894EE89FF896083E889F98972
:1003000080818370806480839FBF81E090E0DF9173
:10031000CF911F910F91FF90EF900895F62E0B8DC6
:1003200010E00F5F1F4F0F731127E02E8C8D8E1181
:100330000CC00FB607FCFACFE889F989808185FFE8
:10034000F5CFCE010E944501F1CFEB8DEC0FFD2FD3
:10035000F11DE35AFF4FF0829FB7F8940B8FEA89A3
:10036000FB8980818062CFCFCF93DF93EC01888DB2
:100370008823B9F0AA89BB89E889F9898C9185FD20
:1003800003C0808186FD0DC00FB607FCF7CF8C91AE
:1003900085FFF2CF808185FFEDCFCE010E94450120
:1003A000E9CFDF91CF91089590E0FC01EC55FF4F2C
:1003B0002491FC01E057FF4F3491FC01E458FF4FBA
:1003C000E491EE23C9F0222339F0233001F1A8F49F
:1003D000213019F1223029F1F0E0EE0FFF1FEE5825
:1003E000FF4FA591B4918FB7F894EC91611126C09D
:1003F00030953E233C938FBF08952730A9F02830D5
:10040000C9F0243049F7809180008F7D03C080912E
:1004100080008F7780938000DFCF84B58F7784BD95
:10042000DBCF84B58F7DFBCF8091B0008F77809339
:10043000B000D2CF8091B0008F7DF9CF3E2BDACFC4
:10044000CF93DF9390E0FC01E057FF4F2491845855
:100450009F4FFC0184918823D1F090E0880F991F71
:10046000FC01E859FF4FA591B491FC01EE58FF4FF4
:10047000C591D49161110EC09FB7F8948C91E22F71
:10048000E0958E238C932881E223E8839FBFDF9140
:10049000CF9108958FB7F894EC91E22BEC938FBF36
:1004A000F6CF3FB7F8948091610190916201A091DD
:1004B0006301B091640126B5A89B05C02F3F19F0D8
:1004C0000196A11DB11D3FBFBA2FA92F982F8827D4
:1004D000BC01CD01620F711D811D911D42E0660FAF
:1004E000771F881F991F4A95D1F708958F929F9281
:1004F000AF92BF92CF92DF92EF92FF924B015C01DD
:100500000E9451026B017C010E9451026C197D090D
:100510008E099F09683E734081059105A8F321E08B
:10052000821A9108A108B10888EEC80E83E0D81E8F
:10053000E11CF11C81149104A104B10429F7FF907E
:10054000EF90DF90CF90BF90AF909F908F900895E5
:1005500008958F929F92AF92BF92FF920F931F9335
:10056000CF93DF93FC01F0808BE08F1508F44AC035
:10057000828108E512E0081B110987FD1395000F21
:10058000111F000F111F8181C8E8D0E0C81BD109DD
:1005900087FDD395CC0FDD1FCC0FDD1F4E010D2E37
:1005A000000CAA08BB089801012E000C440B550B47
:1005B000281939094A095B09DB010E94790924EBF2
:1005C00030E040E050E00E944F09820E931EA41ECE
:1005D000B51E8C169D062CF0E801801691060CF4D1
:1005E000E4012297CC0FDD1F2FB7F8948F2D90E0F8
:1005F000FC01EE0FFF1FE80FF91FE85CFE4FD283EE
:10060000C1832FBFDF91CF911F910F91FF90BF90BA
:10061000AF909F908F9008951F93CF93DF93EC013D
:10062000162F88818C3008F04EC061E0812F0E9427
:1006300020028881282F30E0F901EE0FFF1FE20F22
:10064000F31FE85CFE4F1F736081607C612B608349
:1006500019821A822CE0622F0E94B209829FB00197
:10066000112430E020E0AB01420F531FFA01EE0FDE
:10067000FF1FE40FF51FE85CFE4F908196FD16C04A
:100680002F5F3F4F2C30310571F781110FC0109251
:10069000800082E080938100109285001092840097
:1006A000B19A80916F00826080936F00E8818E2FF5
:1006B00090E0FC01EE0FFF1FE80FF91FE85CFE4F12
:1006C0008081806480838881DF91CF911F9108951C
:1006D000AF92BF92CF92DF92EF92FF920F931F9350
:1006E000CF93DF93162FD42FC22F682F8AE00E945A
:1006F000D401612F8BE00E94D4016D2F8CE00E9409
:10070000D4016C2F8DE00E94D401602F8EE00E94F6
:10071000D401B70184E692E00E94A902B60181E605
:1007200092E00E94A902B5018EE592E0DF91CF919F
:100730001F910F91FF90EF90DF90CF90BF90AF90FF
:100740000C94A902CF92DF92EF92FF920F931F9326
:10075000CF93DF9300D0CDB7DEB769834A83880F8C
:10076000991F00915C0210915D02000F111FE6E0DD
:10077000F2E09F01265032402017310714F4119205
:10078000F8CF2981FC01EA5FFD4F21838A818083B4
:1007900060E080915A020E94D4011016110604F5FF
:1007A00001501109F801EA5FFD4FE080D090580236
:1007B000C090560288E0F82E6E2D661F6627661FD1
:1007C0008C2D0E94D401EE0C61E08D2D0E94D4018D
:1007D00060E08D2D0E94D401FA94F110EDCFDDCFB1
:1007E00061E080915A020F900F90DF91CF911F919D
:1007F0000F91FF90EF90DF90CF900C94D401EF9287
:10080000FF920F931F93CF937C018C0183E0000F25
:10081000111F8A95E1F70A5E1D4FC1E0F8011192A0
:100820008F0140E06C2FC7010E94A203CF5FC93047
:10083000A9F7CF911F910F91FF90EF90089520910C
:100840005C0230915D02121613068CF4603178F46C
:10085000E62FF0E0E854FF4F4491FC01EA5FFD4FC2
:10086000408B61E0680F90E080E00C94A203089553
:100870001F93CF93DF93162FD42FC22F682F90E0B2
:1008800080E00E941F04612F81E090E00E941F041D
:100890006D2F82E090E00E941F046C2F83E090E0B7
:1008A0000E941F0468EE73E080E090E0DF91CF913A
:1008B0001F910C947602FC0101900020E9F731971A
:1008C000AF01481B590BBC0189E691E00C94C700AD
:1008D000CF93DF930E945B04EC0186E191E00E94DC
:1008E0005B048C0F9D1FDF91CF910895AF92BF9253
:1008F000CF92DF92EF92FF920F931F93CF93DF93EC
:10090000CDB7DEB7A1970FB6F894DEBF0FBECDBF4F
:100910005C016C01990FEE08FF08F7FE4BC06DE219
:1009200089E691E00E94670122273327A9012C194B
:100930003D094E095F0919A28E010F5D1F4F9AE014
:10094000C92ED12CE12CF12CCA01B901A7019601C5
:100950000E948109605DF80162938F0121153105C4
:100960004105510589F70115110519F0C8010E94CB
:100970005B0486E191E00E945B04FAE0AF16B104EB
:10098000A4F51092660110926501B0926801A092E0
:100990006701A1960FB6F894DEBF0FBECDBFDF9101
:1009A000CF911F910F91FF90EF90DF90CF90BF906C
:1009B000AF900895A701960119A28E010F5D1F4FF8
:1009C0008AE0C82ED12CE12CF12CCA01B901A70173
:1009D00096010E948109605DF80162938F012115E3
:1009E00031054105510589F7BECFC5016AE070E0C8
:1009F0000E94BE097093660160936501909368013F
:100A000080936701C6CFAF92BF92CF92DF92EF92F1
:100A1000FF920F931F93CF93DF93B12CA12C8AE504
:100A2000C82ED12C9AE5E92EF12C10E000E030E040
:100A300020E041E050E061E070E090E080E00E9462
:100A40006803CAE0D0E0CE010E947604609167019D
:100A50007091680130E020E050E040E08091650155
:100A6000909166010E943804219768F7DF91CF9139
:100A70001F910F91FF90EF90DF90CF90BF90AF90BC
:100A80000895AF92BF92CF92DF92EF92FF920F93B1
:100A90001F93CF93DF93B12CA12CD12CC12CF12C1F
:100AA000E12C01E010E021E030E050E040E061E0C6
:100AB00070E090E080E00E946803CEE1D0E0CE01DB
:100AC0000E947604609167017091680180916501D0
:100AD000909166019B01AC010E943804219778F740
:100AE000DF91CF911F910F91FF90EF90DF90CF900A
:100AF000BF90AF9008951F920F920FB60F921124DE
:100B00002F933F934F935F936F937F938F939F9315
:100B1000AF93BF93EF93FF9389E691E00E94450165
:100B2000FF91EF91BF91AF919F918F917F916F91C5
:100B30005F914F913F912F910F900FBE0F901F909B
:100B400018951F920F920FB60F9211242F938F9327
:100B50009F93EF93FF93E0917901F0917A01808167
:100B6000E0917F01F091800182FD1BC09081809116
:100B700082018F5F8F7320918301821741F0E09192
:100B80008201F0E0E759FE4F958F80938201FF913B
:100B9000EF919F918F912F910F900FBE0F901F900B
:100BA00018958081F4CF1F920F920FB60F921124E7
:100BB0002F933F938F939F93AF93BF9380915D014A
:100BC00090915E01A0915F01B091600130915C0154
:100BD00023E0230F2D3758F50196A11DB11D209359
:100BE0005C0180935D0190935E01A0935F01B093DF
:100BF00060018091610190916201A0916301B091C7
:100C000064010196A11DB11D809361019093620161
:100C1000A0936301B0936401BF91AF919F918F91B5
:100C20003F912F910F900FBE0F901F90189526E8BF
:100C3000230F0296A11DB11DD2CF1F920F920FB6A6
:100C40000F9211242F933F934F935F936F937F9352
:100C50008F939F93AF93BF93EF93FF93E091020124
:100C6000F09103010995FF91EF91BF91AF919F9191
:100C70008F917F916F915F914F913F912F910F9045
:100C80000FBE0F901F9018951F920F920FB60F92E4
:100C900011242F933F934F935F936F937F938F9381
:100CA0009F93AF93BF93EF93FF93E0910001F09177
:100CB00001010995FF91EF91BF91AF919F918F91A4
:100CC0007F916F915F914F913F912F910F900FBE48
:100CD0000F901F9018951F920F920FB60F9211242C
:100CE0002F933F934F935F936F937F938F939F9334
:100CF000AF93BF93CF93DF93EF93FF938091360130
:100D0000C0913701D0E087FF24C010928500109277
:100D10008400809136018F5F809336018091360187
:100D2000082E000C990B8C179D0724F48091360136
:100D30008C30C4F1809184009091850004968034B9
:100D40009C4908F47AC080918400909185000496B3
:100D500076C080913601082E000C990B8C179D07E8
:100D6000C4F6E09136018E2FEE0F990BFC01EE0FC9
:100D7000FF1FE80FF91FE85CFE4F808186FFC9CF97
:100D8000E09136018E2FEE0F990BFC01EE0FFF1F45
:100D9000E80FF91FE85CFE4F808160E08F730E94CE
:100DA000D401B7CF2091840030918500E0913601C5
:100DB0008E2FEE0F990BFC01EE0FFF1FE80FF91FAE
:100DC000E85CFE4F81819281820F931F909389008E
:100DD00080938800E09136018E2FEE0F990BFC0175
:100DE000EE0FFF1FE80FF91FE85CFE4F808186FFC2
:100DF00011C0E09136018E2FEE0F990BFC01EE0F22
:100E0000FF1FE80FF91FE85CFE4F808161E08F73E0
:100E10000E94D401FF91EF91DF91CF91BF91AF91EB
:100E20009F918F917F916F915F914F913F912F9102
:100E30000F900FBE0F901F90189580E49CE990933F
:100E40008900809388008FEF80933601E3CFFC0107
:100E5000909137019C3098F481E0890F809337019D
:100E60009083892F90E0FC01EE0FFF1FE80FF91F20
:100E7000E85CFE4F88EB9BE09283818308958FEFBF
:100E800080830895CF93DF9310926C0110926B01D1
:100E900088EE93E0A0E0B0E080936D0190936E0146
:100EA000A0936F01B093700188E091E090936A0184
:100EB0008093690185EC90E09093760180937501B1
:100EC00084EC90E0909378018093770180EC90E03F
:100ED00090937A018093790181EC90E090937C016A
:100EE00080937B0182EC90E090937E0180937D0162
:100EF00086EC90E09093800180937F0110928201B4
:100F000010928301109284011092850184E692E090
:100F10000E94270781E692E00E9427078EE592E073
:100F20000E942707C6E0D0E0D0935702C093560234
:100F300085E090E0909359028093580284E090E01D
:100F400090935B0280935A0281E090E090935D025F
:100F500080935C0261E086E00E94200261E0809163
:100F600058020E94200261E080915A020E942002F1
:100F700061E080915A020E94D401D0935702C0933D
:100F80005602E6E1F2E0119282E0E635F807D9F781
:100F9000D0E0C0E080915C0290915D02C817D90753
:100FA00074F540E06FE0CE010E94A20380915C02E4
:100FB00090915D02C817D9072CF447E06BE0CE0191
:100FC0000E94A20340E069E0CE010E94A20380914A
:100FD0005C0290915D02C817D9071CF4CE010E94F3
:100FE000FF0380915C0290915D02C817D9072CF431
:100FF00040E06CE0CE010E94A2032196CBCFDF91AE
:10100000CF910895789484B5826084BD84B5816061
:1010100084BD85B5826085BD85B5816085BD8091C3
:101020006E00816080936E0010928100809181003B
:101030008260809381008091810081608093810033
:10104000809180008160809380008091B1008460F5
:101050008093B1008091B00081608093B000809156
:101060007A00846080937A0080917A008260809315
:101070007A0080917A00816080937A0080917A0072
:10108000806880937A001092C100E0917901F0911C
:101090007A0182E08083E0917501F09176011082FF
:1010A000E0917701F09178018FEC808310928101BB
:1010B000E0917D01F0917E0186E08083E0917B01EB
:1010C000F0917C01808180618083E0917B01F091CF
:1010D0007C01808188608083E0917B01F0917C01BC
:1010E000808180688083E0917B01F0917C01808128
:1010F0008F7D808360E082E00E94200260E083E0D8
:101100000E94200283E095E090930101809300010A
:1011100080916900836080936900E89A81E495E09A
:101120009093030180930201809169008C60809309
:101130006900E99A67E070E084E692E00E940C039F
:1011400068E070E081E692E00E940C0369E070E0E4
:101150008EE592E00E940C0370E060E084E692E08D
:101160000E94A90270E060E081E692E00E94A9027C
:1011700070E060E08EE592E00E94A902CAE061E0C2
:101180008C2F0E942002CF5FCE30C9F761E08EE045
:101190000E94200280915C0290915D02181619064F
:1011A00034F441E06CE090E080E00E94A203809182
:1011B0005C0290915D021816190634F448E06AE06A
:1011C00090E080E00E94A20380915C0290915D0219
:1011D0001816190624F490E080E00E94FF0360EDE9
:1011E00077E080E090E00E94760290E0892E90E027
:1011F000992E89E191E00E9468040E94030568EE3F
:1012000073E080E090E00E94760283E291E00E9429
:1012100068048AE5A82EB12CD12CC12CF12CE12C2C
:1012200010E000E021E030E050E040E070E060E0FD
:1012300081E090E00E946803C4E1D0E0CE010E940A
:1012400076042091670130916801409165015091C9
:10125000660170E060E090E080E00E943804219731
:1012600068F768EE73E080E090E00E9476028DE21D
:1012700091E00E9468040E94410568EE73E080E0FE
:1012800090E00E9476028114910409F4B2CF0E948A
:101290003101882309F4ADCF0E940000AACF052EAA
:1012A00097FB1EF400940E94660957FD07D00E9428
:1012B000810907FC03D04EF40C94660950954095C3
:1012C000309521953F4F4F4F5F4F089590958095F2
:1012D000709561957F4F8F4F9F4F08950E94A3098E
:1012E000A59F900DB49F900DA49F800D911D11247A
:1012F0000895B7FF0C946E090E946E09821B930B30
:101300000895A1E21A2EAA1BBB1BFD010DC0AA1F46
:10131000BB1FEE1FFF1FA217B307E407F50720F05E
:10132000A21BB30BE40BF50B661F771F881F991FD9
:101330001A9469F760957095809590959B01AC0122
:10134000BD01CF010895A29FB001B39FC001A39F2B
:10135000700D811D1124911DB29F700D811D1124EE
:10136000911D0895991B79E004C0991F961708F004
:10137000961B881F7A95C9F78095089597FB072ECD
:1013800016F4009407D077FD09D00E94D20907FC1B
:1013900005D03EF4909581959F4F08957095619585
:1013A0007F4F0895AA1BBB1B51E107C0AA1FBB1F9B
:1013B000A617B70710F0A61BB70B881F991F5A95E1
:1013C000A9F780959095BC01CD010895EE0FFF1F00
:0C13D0000590F491E02D0994F894FFCFF3
:1013DC00A802A802000000006701C700F400B401D5
:1013EC002501030117010D0A007065645F63726FBC
:1013FC007373007665685F63726F737300656D5FFE
:06140C0063726F737300B0
:00000001FF
